{
  "_format": "hh-sol-artifact-1",
  "contractName": "mintContractParent",
  "sourceName": "contracts/mintContractParent.sol",
  "abi": [
    {
      "anonymous": false,
      "inputs": [
        {
          "indexed": true,
          "internalType": "address",
          "name": "previousOwner",
          "type": "address"
        },
        {
          "indexed": true,
          "internalType": "address",
          "name": "newOwner",
          "type": "address"
        }
      ],
      "name": "OwnershipTransferred",
      "type": "event"
    },
    {
      "anonymous": false,
      "inputs": [
        {
          "indexed": false,
          "internalType": "address",
          "name": "",
          "type": "address"
        },
        {
          "indexed": false,
          "internalType": "address",
          "name": "",
          "type": "address"
        }
      ],
      "name": "TokenCreated",
      "type": "event"
    },
    {
      "anonymous": false,
      "inputs": [
        {
          "indexed": false,
          "internalType": "address",
          "name": "",
          "type": "address"
        },
        {
          "indexed": false,
          "internalType": "address",
          "name": "",
          "type": "address"
        },
        {
          "indexed": false,
          "internalType": "address",
          "name": "",
          "type": "address"
        },
        {
          "indexed": false,
          "internalType": "uint256",
          "name": "",
          "type": "uint256"
        }
      ],
      "name": "TokenTransfered",
      "type": "event"
    },
    {
      "inputs": [
        {
          "internalType": "address",
          "name": "mintor",
          "type": "address"
        },
        {
          "internalType": "address",
          "name": "tokenAddress",
          "type": "address"
        },
        {
          "internalType": "uint256",
          "name": "start",
          "type": "uint256"
        },
        {
          "internalType": "uint256",
          "name": "end",
          "type": "uint256"
        },
        {
          "internalType": "uint256",
          "name": "price",
          "type": "uint256"
        }
      ],
      "name": "bulkMintERC721",
      "outputs": [],
      "stateMutability": "nonpayable",
      "type": "function"
    },
    {
      "inputs": [
        {
          "internalType": "string",
          "name": "name",
          "type": "string"
        },
        {
          "internalType": "string",
          "name": "symbol",
          "type": "string"
        }
      ],
      "name": "createToken",
      "outputs": [],
      "stateMutability": "nonpayable",
      "type": "function"
    },
    {
      "inputs": [],
      "name": "owner",
      "outputs": [
        {
          "internalType": "address",
          "name": "",
          "type": "address"
        }
      ],
      "stateMutability": "view",
      "type": "function"
    },
    {
      "inputs": [],
      "name": "renounceOwnership",
      "outputs": [],
      "stateMutability": "nonpayable",
      "type": "function"
    },
    {
      "inputs": [
        {
          "internalType": "address",
          "name": "newOwner",
          "type": "address"
        }
      ],
      "name": "transferOwnership",
      "outputs": [],
      "stateMutability": "nonpayable",
      "type": "function"
    },
    {
      "inputs": [
        {
          "internalType": "address",
          "name": "from",
          "type": "address"
        },
        {
          "internalType": "address payable",
          "name": "to",
          "type": "address"
        },
        {
          "internalType": "address",
          "name": "token",
          "type": "address"
        },
        {
          "internalType": "uint256",
          "name": "amount",
          "type": "uint256"
        }
      ],
      "name": "transferToken",
      "outputs": [],
      "stateMutability": "nonpayable",
      "type": "function"
    }
  ],
  "bytecode": "0x608060405234801561001057600080fd5b5061002d61002261003260201b60201c565b61003a60201b60201c565b6100fe565b600033905090565b60008060009054906101000a900473ffffffffffffffffffffffffffffffffffffffff169050816000806101000a81548173ffffffffffffffffffffffffffffffffffffffff021916908373ffffffffffffffffffffffffffffffffffffffff1602179055508173ffffffffffffffffffffffffffffffffffffffff168173ffffffffffffffffffffffffffffffffffffffff167f8be0079c531659141344cd1fd0a4f28419497f9722a3daafe3b4186f6b6457e060405160405180910390a35050565b614dfe8061010d6000396000f3fe60806040523480156200001157600080fd5b50600436106200006a5760003560e01c80632c54de4f146200006f5780632f2f2d56146200008f578063715018a614620000af5780638da5cb5b14620000bb5780639d0df75d14620000dd578063f2fde38b14620000fd575b600080fd5b6200008d600480360381019062000087919062000748565b6200011d565b005b620000ad6004803603810190620000a7919062000836565b620001d7565b005b620000b9620002ac565b005b620000c5620002c4565b604051620000d4919062000a08565b60405180910390f35b620000fb6004803603810190620000f59190620007b4565b620002ed565b005b6200011b60048036038101906200011591906200071c565b620003cb565b005b8173ffffffffffffffffffffffffffffffffffffffff166368155ec1858585856040518563ffffffff1660e01b81526004016200015e949392919062000a52565b600060405180830381600087803b1580156200017957600080fd5b505af11580156200018e573d6000803e3d6000fd5b505050507fa7814aaf178d6c8e61b2703f3dc1b8328dd6c99cbb405bf8f1bb0cb1bbb051a584848484604051620001c9949392919062000a9f565b60405180910390a150505050565b60008282604051620001e990620005a7565b620001f692919062000b30565b604051809103906000f08015801562000213573d6000803e3d6000fd5b50905082600160008373ffffffffffffffffffffffffffffffffffffffff1673ffffffffffffffffffffffffffffffffffffffff16815260200190815260200160002090805190602001906200026b929190620005b5565b507fd5f9bdf12adf29dab0248c349842c3822d53ae2bb4f36352f301630d018c813933826040516200029f92919062000a25565b60405180910390a1505050565b620002b662000456565b620002c26000620004db565b565b60008060009054906101000a900473ffffffffffffffffffffffffffffffffffffffff16905090565b60008390505b82811015620003c3578473ffffffffffffffffffffffffffffffffffffffff1663cd279c7c8784600160008a73ffffffffffffffffffffffffffffffffffffffff1673ffffffffffffffffffffffffffffffffffffffff1681526020019081526020016000206040518463ffffffff1660e01b8152600401620003799392919062000aec565b600060405180830381600087803b1580156200039457600080fd5b505af1158015620003a9573d6000803e3d6000fd5b505050508080620003ba9062000d7e565b915050620002f3565b505050505050565b620003d562000456565b600073ffffffffffffffffffffffffffffffffffffffff168173ffffffffffffffffffffffffffffffffffffffff16141562000448576040517f08c379a00000000000000000000000000000000000000000000000000000000081526004016200043f9062000b6b565b60405180910390fd5b6200045381620004db565b50565b620004606200059f565b73ffffffffffffffffffffffffffffffffffffffff1662000480620002c4565b73ffffffffffffffffffffffffffffffffffffffff1614620004d9576040517f08c379a0000000000000000000000000000000000000000000000000000000008152600401620004d09062000b8d565b60405180910390fd5b565b60008060009054906101000a900473ffffffffffffffffffffffffffffffffffffffff169050816000806101000a81548173ffffffffffffffffffffffffffffffffffffffff021916908373ffffffffffffffffffffffffffffffffffffffff1602179055508173ffffffffffffffffffffffffffffffffffffffff168173ffffffffffffffffffffffffffffffffffffffff167f8be0079c531659141344cd1fd0a4f28419497f9722a3daafe3b4186f6b6457e060405160405180910390a35050565b600033905090565b613e988062000f3183390190565b828054620005c39062000d12565b90600052602060002090601f016020900481019282620005e7576000855562000633565b82601f106200060257805160ff191683800117855562000633565b8280016001018555821562000633579182015b828111156200063257825182559160200191906001019062000615565b5b50905062000642919062000646565b5090565b5b808211156200066157600081600090555060010162000647565b5090565b60006200067c620006768462000bd8565b62000baf565b9050828152602081018484840111156200069557600080fd5b620006a284828562000ccd565b509392505050565b600081359050620006bb8162000ee2565b92915050565b600081359050620006d28162000efc565b92915050565b600082601f830112620006ea57600080fd5b8135620006fc84826020860162000665565b91505092915050565b600081359050620007168162000f16565b92915050565b6000602082840312156200072f57600080fd5b60006200073f84828501620006aa565b91505092915050565b600080600080608085870312156200075f57600080fd5b60006200076f87828801620006aa565b94505060206200078287828801620006c1565b93505060406200079587828801620006aa565b9250506060620007a88782880162000705565b91505092959194509250565b600080600080600060a08688031215620007cd57600080fd5b6000620007dd88828901620006aa565b9550506020620007f088828901620006aa565b9450506040620008038882890162000705565b9350506060620008168882890162000705565b9250506080620008298882890162000705565b9150509295509295909350565b600080604083850312156200084a57600080fd5b600083013567ffffffffffffffff8111156200086557600080fd5b6200087385828601620006d8565b925050602083013567ffffffffffffffff8111156200089157600080fd5b6200089f85828601620006d8565b9150509250929050565b620008b48162000c91565b82525050565b620008c58162000c53565b82525050565b620008d68162000c3f565b82525050565b6000620008e98262000c23565b620008f5818562000c2e565b93506200090781856020860162000cdc565b620009128162000e59565b840191505092915050565b600081546200092c8162000d12565b62000938818662000c2e565b945060018216600081146200095657600181146200096957620009a0565b60ff1983168652602086019350620009a0565b620009748562000c0e565b60005b83811015620009985781548189015260018201915060208101905062000977565b808801955050505b50505092915050565b6000620009b860268362000c2e565b9150620009c58262000e6a565b604082019050919050565b6000620009df60208362000c2e565b9150620009ec8262000eb9565b602082019050919050565b62000a028162000c87565b82525050565b600060208201905062000a1f6000830184620008cb565b92915050565b600060408201905062000a3c6000830185620008cb565b62000a4b6020830184620008cb565b9392505050565b600060808201905062000a696000830187620008cb565b62000a786020830186620008ba565b62000a876040830185620008cb565b62000a966060830184620009f7565b95945050505050565b600060808201905062000ab66000830187620008cb565b62000ac56020830186620008a9565b62000ad46040830185620008cb565b62000ae36060830184620009f7565b95945050505050565b600060608201905062000b036000830186620008cb565b62000b126020830185620009f7565b818103604083015262000b2681846200091d565b9050949350505050565b6000604082019050818103600083015262000b4c8185620008dc565b9050818103602083015262000b628184620008dc565b90509392505050565b6000602082019050818103600083015262000b8681620009a9565b9050919050565b6000602082019050818103600083015262000ba881620009d0565b9050919050565b600062000bbb62000bce565b905062000bc9828262000d48565b919050565b6000604051905090565b600067ffffffffffffffff82111562000bf65762000bf562000e2a565b5b62000c018262000e59565b9050602081019050919050565b60008190508160005260206000209050919050565b600081519050919050565b600082825260208201905092915050565b600062000c4c8262000c67565b9050919050565b600062000c608262000c67565b9050919050565b600073ffffffffffffffffffffffffffffffffffffffff82169050919050565b6000819050919050565b600062000c9e8262000ca5565b9050919050565b600062000cb28262000cb9565b9050919050565b600062000cc68262000c67565b9050919050565b82818337600083830152505050565b60005b8381101562000cfc57808201518184015260208101905062000cdf565b8381111562000d0c576000848401525b50505050565b6000600282049050600182168062000d2b57607f821691505b6020821081141562000d425762000d4162000dfb565b5b50919050565b62000d538262000e59565b810181811067ffffffffffffffff8211171562000d755762000d7462000e2a565b5b80604052505050565b600062000d8b8262000c87565b91507fffffffffffffffffffffffffffffffffffffffffffffffffffffffffffffffff82141562000dc15762000dc062000dcc565b5b600182019050919050565b7f4e487b7100000000000000000000000000000000000000000000000000000000600052601160045260246000fd5b7f4e487b7100000000000000000000000000000000000000000000000000000000600052602260045260246000fd5b7f4e487b7100000000000000000000000000000000000000000000000000000000600052604160045260246000fd5b6000601f19601f8301169050919050565b7f4f776e61626c653a206e6577206f776e657220697320746865207a65726f206160008201527f6464726573730000000000000000000000000000000000000000000000000000602082015250565b7f4f776e61626c653a2063616c6c6572206973206e6f7420746865206f776e6572600082015250565b62000eed8162000c3f565b811462000ef957600080fd5b50565b62000f078162000c53565b811462000f1357600080fd5b50565b62000f218162000c87565b811462000f2d57600080fd5b5056fe60806040523480156200001157600080fd5b5060405162003e9838038062003e98833981810160405281019062000037919062000197565b818181600090805190602001906200005192919062000075565b5080600190805190602001906200006a92919062000075565b50505050506200037a565b82805462000083906200029f565b90600052602060002090601f016020900481019282620000a75760008555620000f3565b82601f10620000c257805160ff1916838001178555620000f3565b82800160010185558215620000f3579182015b82811115620000f2578251825591602001919060010190620000d5565b5b50905062000102919062000106565b5090565b5b808211156200012157600081600090555060010162000107565b5090565b60006200013c620001368462000233565b6200020a565b9050828152602081018484840111156200015557600080fd5b6200016284828562000269565b509392505050565b600082601f8301126200017c57600080fd5b81516200018e84826020860162000125565b91505092915050565b60008060408385031215620001ab57600080fd5b600083015167ffffffffffffffff811115620001c657600080fd5b620001d4858286016200016a565b925050602083015167ffffffffffffffff811115620001f257600080fd5b62000200858286016200016a565b9150509250929050565b60006200021662000229565b9050620002248282620002d5565b919050565b6000604051905090565b600067ffffffffffffffff8211156200025157620002506200033a565b5b6200025c8262000369565b9050602081019050919050565b60005b83811015620002895780820151818401526020810190506200026c565b8381111562000299576000848401525b50505050565b60006002820490506001821680620002b857607f821691505b60208210811415620002cf57620002ce6200030b565b5b50919050565b620002e08262000369565b810181811067ffffffffffffffff821117156200030257620003016200033a565b5b80604052505050565b7f4e487b7100000000000000000000000000000000000000000000000000000000600052602260045260246000fd5b7f4e487b7100000000000000000000000000000000000000000000000000000000600052604160045260246000fd5b6000601f19601f8301169050919050565b613b0e806200038a6000396000f3fe608060405234801561001057600080fd5b50600436106101005760003560e01c806368155ec111610097578063b88d4fde11610066578063b88d4fde146102c1578063c87b56dd146102dd578063cd279c7c1461030d578063e985e9c51461032957610100565b806368155ec11461023b57806370a082311461025757806395d89b4114610287578063a22cb465146102a557610100565b806323b872dd116100d357806323b872dd1461019f57806342842e0e146101bb57806351f28e14146101d75780636352211e1461020b57610100565b806301ffc9a71461010557806306fdde0314610135578063081812fc14610153578063095ea7b314610183575b600080fd5b61011f600480360381019061011a9190612848565b610359565b60405161012c9190612e26565b60405180910390f35b61013d61043b565b60405161014a9190612e41565b60405180910390f35b61016d6004803603810190610168919061289a565b6104cd565b60405161017a9190612cfe565b60405180910390f35b61019d600480360381019061019891906127a5565b610513565b005b6101b960048036038101906101b4919061269f565b61062b565b005b6101d560048036038101906101d0919061269f565b61068b565b005b6101f160048036038101906101ec919061289a565b6106ab565b604051610202959493929190612dd3565b60405180910390f35b6102256004803603810190610220919061289a565b610741565b6040516102329190612cfe565b60405180910390f35b6102556004803603810190610250919061263c565b6107f3565b005b610271600480360381019061026c91906125d7565b610916565b60405161027e9190613003565b60405180910390f35b61028f6109ce565b60405161029c9190612e41565b60405180910390f35b6102bf60048036038101906102ba9190612769565b610a60565b005b6102db60048036038101906102d691906126ee565b610a76565b005b6102f760048036038101906102f2919061289a565b610ad8565b6040516103049190612e41565b60405180910390f35b610327600480360381019061032291906127e1565b610beb565b005b610343600480360381019061033e9190612600565b61123e565b6040516103509190612e26565b60405180910390f35b60007f80ac58cd000000000000000000000000000000000000000000000000000000007bffffffffffffffffffffffffffffffffffffffffffffffffffffffff1916827bffffffffffffffffffffffffffffffffffffffffffffffffffffffff1916148061042457507f5b5e139f000000000000000000000000000000000000000000000000000000007bffffffffffffffffffffffffffffffffffffffffffffffffffffffff1916827bffffffffffffffffffffffffffffffffffffffffffffffffffffffff1916145b806104345750610433826112d2565b5b9050919050565b60606000805461044a906132fb565b80601f0160208091040260200160405190810160405280929190818152602001828054610476906132fb565b80156104c35780601f10610498576101008083540402835291602001916104c3565b820191906000526020600020905b8154815290600101906020018083116104a657829003601f168201915b5050505050905090565b60006104d88261133c565b6004600083815260200190815260200160002060009054906101000a900473ffffffffffffffffffffffffffffffffffffffff169050919050565b600061051e82610741565b90508073ffffffffffffffffffffffffffffffffffffffff168373ffffffffffffffffffffffffffffffffffffffff16141561058f576040517f08c379a000000000000000000000000000000000000000000000000000000000815260040161058690612fc3565b60405180910390fd5b8073ffffffffffffffffffffffffffffffffffffffff166105ae611387565b73ffffffffffffffffffffffffffffffffffffffff1614806105dd57506105dc816105d7611387565b61123e565b5b61061c576040517f08c379a000000000000000000000000000000000000000000000000000000000815260040161061390612f63565b60405180910390fd5b610626838361138f565b505050565b61063c610636611387565b82611448565b61067b576040517f08c379a000000000000000000000000000000000000000000000000000000000815260040161067290612fe3565b60405180910390fd5b6106868383836114dd565b505050565b6106a683838360405180602001604052806000815250610a76565b505050565b60086020528060005260406000206000915090508060000160009054906101000a900473ffffffffffffffffffffffffffffffffffffffff16908060010154908060020160009054906101000a900473ffffffffffffffffffffffffffffffffffffffff16908060030160009054906101000a900473ffffffffffffffffffffffffffffffffffffffff16908060040154905085565b6000806002600084815260200190815260200160002060009054906101000a900473ffffffffffffffffffffffffffffffffffffffff169050600073ffffffffffffffffffffffffffffffffffffffff168173ffffffffffffffffffffffffffffffffffffffff1614156107ea576040517f08c379a00000000000000000000000000000000000000000000000000000000081526004016107e190612fa3565b60405180910390fd5b80915050919050565b600073ffffffffffffffffffffffffffffffffffffffff168273ffffffffffffffffffffffffffffffffffffffff161461089b578173ffffffffffffffffffffffffffffffffffffffff166323b872dd8585846040518463ffffffff1660e01b815260040161086493929190612d19565b600060405180830381600087803b15801561087e57600080fd5b505af1158015610892573d6000803e3d6000fd5b50505050610910565b8273ffffffffffffffffffffffffffffffffffffffff166108fc829081150290604051600060405180830381858888f1935050505061090f576040517f08c379a000000000000000000000000000000000000000000000000000000000815260040161090690612f43565b60405180910390fd5b5b50505050565b60008073ffffffffffffffffffffffffffffffffffffffff168273ffffffffffffffffffffffffffffffffffffffff161415610987576040517f08c379a000000000000000000000000000000000000000000000000000000000815260040161097e90612f03565b60405180910390fd5b600360008373ffffffffffffffffffffffffffffffffffffffff1673ffffffffffffffffffffffffffffffffffffffff168152602001908152602001600020549050919050565b6060600180546109dd906132fb565b80601f0160208091040260200160405190810160405280929190818152602001828054610a09906132fb565b8015610a565780601f10610a2b57610100808354040283529160200191610a56565b820191906000526020600020905b815481529060010190602001808311610a3957829003601f168201915b5050505050905090565b610a72610a6b611387565b8383611744565b5050565b610a87610a81611387565b83611448565b610ac6576040517f08c379a0000000000000000000000000000000000000000000000000000000008152600401610abd90612fe3565b60405180910390fd5b610ad2848484846118b1565b50505050565b6060610ae38261133c565b6000600660008481526020019081526020016000208054610b03906132fb565b80601f0160208091040260200160405190810160405280929190818152602001828054610b2f906132fb565b8015610b7c5780601f10610b5157610100808354040283529160200191610b7c565b820191906000526020600020905b815481529060010190602001808311610b5f57829003601f168201915b505050505090506000610b8d61190d565b9050600081511415610ba3578192505050610be6565b600082511115610bd8578082604051602001610bc0929190612c1b565b60405160208183030381529060405292505050610be6565b610be184611924565b925050505b919050565b6000610bf7600761198c565b9050610c03848261199a565b610c0b6123bf565b60405180610120016040528060fd81526020016139dc60fd913981600060068110610c5f577f4e487b7100000000000000000000000000000000000000000000000000000000600052603260045260246000fd5b60200201819052506040518060600160405280602881526020016139b46028913981600160068110610cba577f4e487b7100000000000000000000000000000000000000000000000000000000600052603260045260246000fd5b6020020181905250610ccb826119b8565b81600260068110610d05577f4e487b7100000000000000000000000000000000000000000000000000000000600052603260045260246000fd5b60200201819052506040518060400160405280600281526020017f202300000000000000000000000000000000000000000000000000000000000081525081600360068110610d7d577f4e487b7100000000000000000000000000000000000000000000000000000000600052603260045260246000fd5b60200201819052508281600460068110610dc0577f4e487b7100000000000000000000000000000000000000000000000000000000600052603260045260246000fd5b60200201819052506040518060400160405280600d81526020017f3c2f746578743e3c2f7376673e0000000000000000000000000000000000000081525081600560068110610e38577f4e487b7100000000000000000000000000000000000000000000000000000000600052603260045260246000fd5b6020020181905250600081600060068110610e7c577f4e487b7100000000000000000000000000000000000000000000000000000000600052603260045260246000fd5b602002015182600160068110610ebb577f4e487b7100000000000000000000000000000000000000000000000000000000600052603260045260246000fd5b602002015183600260068110610efa577f4e487b7100000000000000000000000000000000000000000000000000000000600052603260045260246000fd5b602002015184600360068110610f39577f4e487b7100000000000000000000000000000000000000000000000000000000600052603260045260246000fd5b602002015185600460068110610f78577f4e487b7100000000000000000000000000000000000000000000000000000000600052603260045260246000fd5b602002015186600560068110610fb7577f4e487b7100000000000000000000000000000000000000000000000000000000600052603260045260246000fd5b6020020151604051602001610fd196959493929190612c3f565b604051602081830303815290604052905080604051602001610ff39190612c04565b60405160208183030381529060405290506000611040611012856119b8565b61101b84611b65565b60405160200161102c929190612c97565b604051602081830303815290604052611b65565b9050806040516020016110539190612cdc565b604051602081830303815290604052915061106e8483611d23565b6040518060a001604052803073ffffffffffffffffffffffffffffffffffffffff1681526020018581526020018873ffffffffffffffffffffffffffffffffffffffff168152602001600073ffffffffffffffffffffffffffffffffffffffff168152602001878152506008600086815260200190815260200160002060008201518160000160006101000a81548173ffffffffffffffffffffffffffffffffffffffff021916908373ffffffffffffffffffffffffffffffffffffffff1602179055506020820151816001015560408201518160020160006101000a81548173ffffffffffffffffffffffffffffffffffffffff021916908373ffffffffffffffffffffffffffffffffffffffff16021790555060608201518160030160006101000a81548173ffffffffffffffffffffffffffffffffffffffff021916908373ffffffffffffffffffffffffffffffffffffffff16021790555060808201518160040155905050833073ffffffffffffffffffffffffffffffffffffffff167f4e87d65c4baed28b185aa1f2f583850f4140e7ee01ee27c4e06f622d085b1bfc8960008a60405161122393929190612d50565b60405180910390a36112356007611d97565b50505050505050565b6000600560008473ffffffffffffffffffffffffffffffffffffffff1673ffffffffffffffffffffffffffffffffffffffff16815260200190815260200160002060008373ffffffffffffffffffffffffffffffffffffffff1673ffffffffffffffffffffffffffffffffffffffff16815260200190815260200160002060009054906101000a900460ff16905092915050565b60007f01ffc9a7000000000000000000000000000000000000000000000000000000007bffffffffffffffffffffffffffffffffffffffffffffffffffffffff1916827bffffffffffffffffffffffffffffffffffffffffffffffffffffffff1916149050919050565b61134581611dad565b611384576040517f08c379a000000000000000000000000000000000000000000000000000000000815260040161137b90612fa3565b60405180910390fd5b50565b600033905090565b816004600083815260200190815260200160002060006101000a81548173ffffffffffffffffffffffffffffffffffffffff021916908373ffffffffffffffffffffffffffffffffffffffff160217905550808273ffffffffffffffffffffffffffffffffffffffff1661140283610741565b73ffffffffffffffffffffffffffffffffffffffff167f8c5be1e5ebec7d5bd14f71427d1e84f3dd0314c0f7b2291e5b200ac8c7c3b92560405160405180910390a45050565b60008061145483610741565b90508073ffffffffffffffffffffffffffffffffffffffff168473ffffffffffffffffffffffffffffffffffffffff1614806114965750611495818561123e565b5b806114d457508373ffffffffffffffffffffffffffffffffffffffff166114bc846104cd565b73ffffffffffffffffffffffffffffffffffffffff16145b91505092915050565b8273ffffffffffffffffffffffffffffffffffffffff166114fd82610741565b73ffffffffffffffffffffffffffffffffffffffff1614611553576040517f08c379a000000000000000000000000000000000000000000000000000000000815260040161154a90612e83565b60405180910390fd5b600073ffffffffffffffffffffffffffffffffffffffff168273ffffffffffffffffffffffffffffffffffffffff1614156115c3576040517f08c379a00000000000000000000000000000000000000000000000000000000081526004016115ba90612ec3565b60405180910390fd5b6115ce838383611e19565b6115d960008261138f565b6001600360008573ffffffffffffffffffffffffffffffffffffffff1673ffffffffffffffffffffffffffffffffffffffff168152602001908152602001600020600082825461162991906131c9565b925050819055506001600360008473ffffffffffffffffffffffffffffffffffffffff1673ffffffffffffffffffffffffffffffffffffffff168152602001908152602001600020600082825461168091906130e8565b92505081905550816002600083815260200190815260200160002060006101000a81548173ffffffffffffffffffffffffffffffffffffffff021916908373ffffffffffffffffffffffffffffffffffffffff160217905550808273ffffffffffffffffffffffffffffffffffffffff168473ffffffffffffffffffffffffffffffffffffffff167fddf252ad1be2c89b69c2b068fc378daa952ba7f163c4a11628f55a4df523b3ef60405160405180910390a461173f838383611e1e565b505050565b8173ffffffffffffffffffffffffffffffffffffffff168373ffffffffffffffffffffffffffffffffffffffff1614156117b3576040517f08c379a00000000000000000000000000000000000000000000000000000000081526004016117aa90612ee3565b60405180910390fd5b80600560008573ffffffffffffffffffffffffffffffffffffffff1673ffffffffffffffffffffffffffffffffffffffff16815260200190815260200160002060008473ffffffffffffffffffffffffffffffffffffffff1673ffffffffffffffffffffffffffffffffffffffff16815260200190815260200160002060006101000a81548160ff0219169083151502179055508173ffffffffffffffffffffffffffffffffffffffff168373ffffffffffffffffffffffffffffffffffffffff167f17307eab39ab6107e8899845ad3d59bd9653f200f220920489ca2b5937696c31836040516118a49190612e26565b60405180910390a3505050565b6118bc8484846114dd565b6118c884848484611e23565b611907576040517f08c379a00000000000000000000000000000000000000000000000000000000081526004016118fe90612e63565b60405180910390fd5b50505050565b606060405180602001604052806000815250905090565b606061192f8261133c565b600061193961190d565b905060008151116119595760405180602001604052806000815250611984565b8061196384611fba565b604051602001611974929190612c1b565b6040516020818303038152906040525b915050919050565b600081600001549050919050565b6119b4828260405180602001604052806000815250612167565b5050565b60606000821415611a00576040518060400160405280600181526020017f30000000000000000000000000000000000000000000000000000000000000008152509050611b60565b600082905060005b60008214611a32578080611a1b9061335e565b915050600a82611a2b919061313e565b9150611a08565b60008167ffffffffffffffff811115611a74577f4e487b7100000000000000000000000000000000000000000000000000000000600052604160045260246000fd5b6040519080825280601f01601f191660200182016040528015611aa65781602001600182028036833780820191505090505b5090505b60008514611b5957600182611abf91906131c9565b9150600a85611ace91906133a7565b6030611ada91906130e8565b60f81b818381518110611b16577f4e487b7100000000000000000000000000000000000000000000000000000000600052603260045260246000fd5b60200101907effffffffffffffffffffffffffffffffffffffffffffffffffffffffffffff1916908160001a905350600a85611b52919061313e565b9450611aaa565b8093505050505b919050565b60606000825190506000811415611b8e5760405180602001604052806000815250915050611d1e565b60006003600283611b9f91906130e8565b611ba9919061313e565b6004611bb5919061316f565b90506000602082611bc691906130e8565b67ffffffffffffffff811115611c05577f4e487b7100000000000000000000000000000000000000000000000000000000600052604160045260246000fd5b6040519080825280601f01601f191660200182016040528015611c375781602001600182028036833780820191505090505b5090506000604051806060016040528060408152602001613974604091399050600181016020830160005b86811015611cdb5760038101905062ffffff818a015116603f8160121c168401518060081b905060ff603f83600c1c1686015116810190508060081b905060ff603f8360061c1686015116810190508060081b905060ff603f831686015116810190508060e01b90508084526004840193505050611c62565b506003860660018114611cf55760028114611d0557611d10565b613d3d60f01b6002830352611d10565b603d60f81b60018303525b508484525050819450505050505b919050565b611d2c82611dad565b611d6b576040517f08c379a0000000000000000000000000000000000000000000000000000000008152600401611d6290612f23565b60405180910390fd5b80600660008481526020019081526020016000209080519060200190611d929291906123e6565b505050565b6001816000016000828254019250508190555050565b60008073ffffffffffffffffffffffffffffffffffffffff166002600084815260200190815260200160002060009054906101000a900473ffffffffffffffffffffffffffffffffffffffff1673ffffffffffffffffffffffffffffffffffffffff1614159050919050565b505050565b505050565b6000611e448473ffffffffffffffffffffffffffffffffffffffff166121c2565b15611fad578373ffffffffffffffffffffffffffffffffffffffff1663150b7a02611e6d611387565b8786866040518563ffffffff1660e01b8152600401611e8f9493929190612d87565b602060405180830381600087803b158015611ea957600080fd5b505af1925050508015611eda57506040513d601f19601f82011682018060405250810190611ed79190612871565b60015b611f5d573d8060008114611f0a576040519150601f19603f3d011682016040523d82523d6000602084013e611f0f565b606091505b50600081511415611f55576040517f08c379a0000000000000000000000000000000000000000000000000000000008152600401611f4c90612e63565b60405180910390fd5b805181602001fd5b63150b7a0260e01b7bffffffffffffffffffffffffffffffffffffffffffffffffffffffff1916817bffffffffffffffffffffffffffffffffffffffffffffffffffffffff191614915050611fb2565b600190505b949350505050565b60606000821415612002576040518060400160405280600181526020017f30000000000000000000000000000000000000000000000000000000000000008152509050612162565b600082905060005b6000821461203457808061201d9061335e565b915050600a8261202d919061313e565b915061200a565b60008167ffffffffffffffff811115612076577f4e487b7100000000000000000000000000000000000000000000000000000000600052604160045260246000fd5b6040519080825280601f01601f1916602001820160405280156120a85781602001600182028036833780820191505090505b5090505b6000851461215b576001826120c191906131c9565b9150600a856120d091906133a7565b60306120dc91906130e8565b60f81b818381518110612118577f4e487b7100000000000000000000000000000000000000000000000000000000600052603260045260246000fd5b60200101907effffffffffffffffffffffffffffffffffffffffffffffffffffffffffffff1916908160001a905350600a85612154919061313e565b94506120ac565b8093505050505b919050565b61217183836121e5565b61217e6000848484611e23565b6121bd576040517f08c379a00000000000000000000000000000000000000000000000000000000081526004016121b490612e63565b60405180910390fd5b505050565b6000808273ffffffffffffffffffffffffffffffffffffffff163b119050919050565b600073ffffffffffffffffffffffffffffffffffffffff168273ffffffffffffffffffffffffffffffffffffffff161415612255576040517f08c379a000000000000000000000000000000000000000000000000000000000815260040161224c90612f83565b60405180910390fd5b61225e81611dad565b1561229e576040517f08c379a000000000000000000000000000000000000000000000000000000000815260040161229590612ea3565b60405180910390fd5b6122aa60008383611e19565b6001600360008473ffffffffffffffffffffffffffffffffffffffff1673ffffffffffffffffffffffffffffffffffffffff16815260200190815260200160002060008282546122fa91906130e8565b92505081905550816002600083815260200190815260200160002060006101000a81548173ffffffffffffffffffffffffffffffffffffffff021916908373ffffffffffffffffffffffffffffffffffffffff160217905550808273ffffffffffffffffffffffffffffffffffffffff16600073ffffffffffffffffffffffffffffffffffffffff167fddf252ad1be2c89b69c2b068fc378daa952ba7f163c4a11628f55a4df523b3ef60405160405180910390a46123bb60008383611e1e565b5050565b6040518060c001604052806006905b60608152602001906001900390816123ce5790505090565b8280546123f2906132fb565b90600052602060002090601f016020900481019282612414576000855561245b565b82601f1061242d57805160ff191683800117855561245b565b8280016001018555821561245b579182015b8281111561245a57825182559160200191906001019061243f565b5b509050612468919061246c565b5090565b5b8082111561248557600081600090555060010161246d565b5090565b600061249c61249784613043565b61301e565b9050828152602081018484840111156124b457600080fd5b6124bf8482856132b9565b509392505050565b60006124da6124d584613074565b61301e565b9050828152602081018484840111156124f257600080fd5b6124fd8482856132b9565b509392505050565b60008135905061251481613900565b92915050565b60008135905061252981613917565b92915050565b60008135905061253e8161392e565b92915050565b60008135905061255381613945565b92915050565b60008151905061256881613945565b92915050565b600082601f83011261257f57600080fd5b813561258f848260208601612489565b91505092915050565b600082601f8301126125a957600080fd5b81356125b98482602086016124c7565b91505092915050565b6000813590506125d18161395c565b92915050565b6000602082840312156125e957600080fd5b60006125f784828501612505565b91505092915050565b6000806040838503121561261357600080fd5b600061262185828601612505565b925050602061263285828601612505565b9150509250929050565b6000806000806080858703121561265257600080fd5b600061266087828801612505565b94505060206126718782880161251a565b935050604061268287828801612505565b9250506060612693878288016125c2565b91505092959194509250565b6000806000606084860312156126b457600080fd5b60006126c286828701612505565b93505060206126d386828701612505565b92505060406126e4868287016125c2565b9150509250925092565b6000806000806080858703121561270457600080fd5b600061271287828801612505565b945050602061272387828801612505565b9350506040612734878288016125c2565b925050606085013567ffffffffffffffff81111561275157600080fd5b61275d8782880161256e565b91505092959194509250565b6000806040838503121561277c57600080fd5b600061278a85828601612505565b925050602061279b8582860161252f565b9150509250929050565b600080604083850312156127b857600080fd5b60006127c685828601612505565b92505060206127d7858286016125c2565b9150509250929050565b6000806000606084860312156127f657600080fd5b600061280486828701612505565b9350506020612815868287016125c2565b925050604084013567ffffffffffffffff81111561283257600080fd5b61283e86828701612598565b9150509250925092565b60006020828403121561285a57600080fd5b600061286884828501612544565b91505092915050565b60006020828403121561288357600080fd5b600061289184828501612559565b91505092915050565b6000602082840312156128ac57600080fd5b60006128ba848285016125c2565b91505092915050565b6128cc81613283565b82525050565b6128db8161320f565b82525050565b6128ea816131fd565b82525050565b6128f981613221565b82525050565b600061290a826130a5565b61291481856130bb565b93506129248185602086016132c8565b61292d81613494565b840191505092915050565b6000612943826130b0565b61294d81856130cc565b935061295d8185602086016132c8565b61296681613494565b840191505092915050565b600061297c826130b0565b61298681856130dd565b93506129968185602086016132c8565b80840191505092915050565b60006129af6032836130cc565b91506129ba826134a5565b604082019050919050565b60006129d26025836130cc565b91506129dd826134f4565b604082019050919050565b60006129f5601c836130cc565b9150612a0082613543565b602082019050919050565b6000612a186014836130dd565b9150612a238261356c565b601482019050919050565b6000612a3b6024836130cc565b9150612a4682613595565b604082019050919050565b6000612a5e6019836130cc565b9150612a69826135e4565b602082019050919050565b6000612a816029836130cc565b9150612a8c8261360d565b604082019050919050565b6000612aa4602e836130cc565b9150612aaf8261365c565b604082019050919050565b6000612ac76022836130cc565b9150612ad2826136ab565b604082019050919050565b6000612aea6002836130dd565b9150612af5826136fa565b600282019050919050565b6000612b0d603e836130cc565b9150612b1882613723565b604082019050919050565b6000612b306020836130cc565b9150612b3b82613772565b602082019050919050565b6000612b53605a836130dd565b9150612b5e8261379b565b605a82019050919050565b6000612b766018836130cc565b9150612b8182613810565b602082019050919050565b6000612b996021836130cc565b9150612ba482613839565b604082019050919050565b6000612bbc601d836130dd565b9150612bc782613888565b601d82019050919050565b6000612bdf602e836130cc565b9150612bea826138b1565b604082019050919050565b612bfe81613279565b82525050565b6000612c108284612971565b915081905092915050565b6000612c278285612971565b9150612c338284612971565b91508190509392505050565b6000612c4b8289612971565b9150612c578288612971565b9150612c638287612971565b9150612c6f8286612971565b9150612c7b8285612971565b9150612c878284612971565b9150819050979650505050505050565b6000612ca282612a0b565b9150612cae8285612971565b9150612cb982612b46565b9150612cc58284612971565b9150612cd082612add565b91508190509392505050565b6000612ce782612baf565b9150612cf38284612971565b915081905092915050565b6000602082019050612d1360008301846128e1565b92915050565b6000606082019050612d2e60008301866128e1565b612d3b60208301856128c3565b612d486040830184612bf5565b949350505050565b6000606082019050612d6560008301866128e1565b612d7260208301856128e1565b612d7f6040830184612bf5565b949350505050565b6000608082019050612d9c60008301876128e1565b612da960208301866128e1565b612db66040830185612bf5565b8181036060830152612dc881846128ff565b905095945050505050565b600060a082019050612de860008301886128e1565b612df56020830187612bf5565b612e0260408301866128d2565b612e0f60608301856128d2565b612e1c6080830184612bf5565b9695505050505050565b6000602082019050612e3b60008301846128f0565b92915050565b60006020820190508181036000830152612e5b8184612938565b905092915050565b60006020820190508181036000830152612e7c816129a2565b9050919050565b60006020820190508181036000830152612e9c816129c5565b9050919050565b60006020820190508181036000830152612ebc816129e8565b9050919050565b60006020820190508181036000830152612edc81612a2e565b9050919050565b60006020820190508181036000830152612efc81612a51565b9050919050565b60006020820190508181036000830152612f1c81612a74565b9050919050565b60006020820190508181036000830152612f3c81612a97565b9050919050565b60006020820190508181036000830152612f5c81612aba565b9050919050565b60006020820190508181036000830152612f7c81612b00565b9050919050565b60006020820190508181036000830152612f9c81612b23565b9050919050565b60006020820190508181036000830152612fbc81612b69565b9050919050565b60006020820190508181036000830152612fdc81612b8c565b9050919050565b60006020820190508181036000830152612ffc81612bd2565b9050919050565b60006020820190506130186000830184612bf5565b92915050565b6000613028613039565b9050613034828261332d565b919050565b6000604051905090565b600067ffffffffffffffff82111561305e5761305d613465565b5b61306782613494565b9050602081019050919050565b600067ffffffffffffffff82111561308f5761308e613465565b5b61309882613494565b9050602081019050919050565b600081519050919050565b600081519050919050565b600082825260208201905092915050565b600082825260208201905092915050565b600081905092915050565b60006130f382613279565b91506130fe83613279565b9250827fffffffffffffffffffffffffffffffffffffffffffffffffffffffffffffffff03821115613133576131326133d8565b5b828201905092915050565b600061314982613279565b915061315483613279565b92508261316457613163613407565b5b828204905092915050565b600061317a82613279565b915061318583613279565b9250817fffffffffffffffffffffffffffffffffffffffffffffffffffffffffffffffff04831182151516156131be576131bd6133d8565b5b828202905092915050565b60006131d482613279565b91506131df83613279565b9250828210156131f2576131f16133d8565b5b828203905092915050565b600061320882613259565b9050919050565b600061321a82613259565b9050919050565b60008115159050919050565b60007fffffffff0000000000000000000000000000000000000000000000000000000082169050919050565b600073ffffffffffffffffffffffffffffffffffffffff82169050919050565b6000819050919050565b600061328e82613295565b9050919050565b60006132a0826132a7565b9050919050565b60006132b282613259565b9050919050565b82818337600083830152505050565b60005b838110156132e65780820151818401526020810190506132cb565b838111156132f5576000848401525b50505050565b6000600282049050600182168061331357607f821691505b6020821081141561332757613326613436565b5b50919050565b61333682613494565b810181811067ffffffffffffffff8211171561335557613354613465565b5b80604052505050565b600061336982613279565b91507fffffffffffffffffffffffffffffffffffffffffffffffffffffffffffffffff82141561339c5761339b6133d8565b5b600182019050919050565b60006133b282613279565b91506133bd83613279565b9250826133cd576133cc613407565b5b828206905092915050565b7f4e487b7100000000000000000000000000000000000000000000000000000000600052601160045260246000fd5b7f4e487b7100000000000000000000000000000000000000000000000000000000600052601260045260246000fd5b7f4e487b7100000000000000000000000000000000000000000000000000000000600052602260045260246000fd5b7f4e487b7100000000000000000000000000000000000000000000000000000000600052604160045260246000fd5b6000601f19601f8301169050919050565b7f4552433732313a207472616e7366657220746f206e6f6e20455243373231526560008201527f63656976657220696d706c656d656e7465720000000000000000000000000000602082015250565b7f4552433732313a207472616e736665722066726f6d20696e636f72726563742060008201527f6f776e6572000000000000000000000000000000000000000000000000000000602082015250565b7f4552433732313a20746f6b656e20616c7265616479206d696e74656400000000600082015250565b7f7b226e616d65223a202253746f72795061642023000000000000000000000000600082015250565b7f4552433732313a207472616e7366657220746f20746865207a65726f2061646460008201527f7265737300000000000000000000000000000000000000000000000000000000602082015250565b7f4552433732313a20617070726f766520746f2063616c6c657200000000000000600082015250565b7f4552433732313a2061646472657373207a65726f206973206e6f74206120766160008201527f6c6964206f776e65720000000000000000000000000000000000000000000000602082015250565b7f45524337323155524953746f726167653a2055524920736574206f66206e6f6e60008201527f6578697374656e7420746f6b656e000000000000000000000000000000000000602082015250565b7f5472616e73666572206f662045544820746f207265636569766572206661696c60008201527f6564000000000000000000000000000000000000000000000000000000000000602082015250565b7f227d000000000000000000000000000000000000000000000000000000000000600082015250565b7f4552433732313a20617070726f76652063616c6c6572206973206e6f7420746f60008201527f6b656e206f776e6572206e6f7220617070726f76656420666f7220616c6c0000602082015250565b7f4552433732313a206d696e7420746f20746865207a65726f2061646472657373600082015250565b7f222c20226465736372697074696f6e223a20225468697320697320617574686f60008201527f72206e66742066726f6d2073746f7279706164222c2022696d616765223a202260208201527f646174613a696d6167652f7376672b786d6c3b6261736536342c000000000000604082015250565b7f4552433732313a20696e76616c696420746f6b656e2049440000000000000000600082015250565b7f4552433732313a20617070726f76616c20746f2063757272656e74206f776e6560008201527f7200000000000000000000000000000000000000000000000000000000000000602082015250565b7f646174613a6170706c69636174696f6e2f6a736f6e3b6261736536342c000000600082015250565b7f4552433732313a2063616c6c6572206973206e6f7420746f6b656e206f776e6560008201527f72206e6f7220617070726f766564000000000000000000000000000000000000602082015250565b613909816131fd565b811461391457600080fd5b50565b6139208161320f565b811461392b57600080fd5b50565b61393781613221565b811461394257600080fd5b50565b61394e8161322d565b811461395957600080fd5b50565b61396581613279565b811461397057600080fd5b5056fe4142434445464748494a4b4c4d4e4f505152535455565758595a6162636465666768696a6b6c6d6e6f707172737475767778797a303132333435363738392b2f3c2f746578743e3c7465787420783d2231302220793d2234302220636c6173733d2262617365223e3c73766720786d6c6e733d22687474703a2f2f7777772e77332e6f72672f323030302f73766722207072657365727665417370656374526174696f3d22784d696e594d696e206d656574222076696577426f783d223020302033353020333530223e3c7374796c653e2e62617365207b2066696c6c3a20626c61636b3b20666f6e742d66616d696c793a2073657269663b20666f6e742d73697a653a20313470783b207d3c2f7374796c653e3c726563742077696474683d223130302522206865696768743d2231303025222066696c6c3d22776869746522202f3e3c7465787420783d2231302220793d2232302220636c6173733d2262617365223ea2646970667358221220e28c8181d2f9c28d21825b4d05c71f1a6d068e6862bf447e9c7b9357d8907a8764736f6c63430008040033a264697066735822122042509319438947f5702d52793a9004656e56e85cd4d65351f14cb0937698e4f064736f6c63430008040033",
  "linkReferences": {},
  "deployedLinkReferences": {}
}